0001 PPASAJEROS BLOQUE I                                                                                                                                                                                                                                                                                                                                                                                                                                                                                                                                                                                                                                                                                                                                                            PASAJEROS                                           000000000000000000            000000     250412D_MIRROR  1995010100000
0001CPPASAJERO BOQUE I (CRUCERO)                                                                                                                                                                                                                                                                                                                                                                                                                                                                                                                                                                                                                                                                                                                                                    PASAJEROS TRÁNSITO (CRUCEROS)                       00099900000342041034   99     010188     250412D_MIRROR  2002040100000
0001DPPASAJEROS CONDUCTORES DE CAMIÓN                                                                                                                                                                                                                                                                                                                                                                                                                                                                                                                                                                                                                                                                                                                                               PASAJEROS CONDUCTORES DE CAMIÓN                     00000000000300040000          151110     250412D_MIRROR  2011010100000
0001TTPASAJEROS EN TRANSITO                                                                                                                                                                                                                                                                                                                                                                                                                                                                                                                                                                                                                                                                                                                                                         PASAJEROS EN TRANSITO                               000000000000000000            000000     250412D_MIRROR  1995010100000
0001VPCONDUCTOR DE UN VEHICULO SUJETO A L3 (CAMIONERO)                                                                                                                                                                                                                                                                                                                                                                                                                                                                                                                                                                                                                                                                                                                              CONDUCTOR DE UN VEHICULO SUJETO A L3 (CAMIONERO)    000000000000000000            000000     250412D_MIRROR  2011010100000
0001XPPASAJEROS BLOQUE I (CRUCERO) INICIAN O FINALIZAN EN A.P.                                                                                                                                                                                                                                                                                                                                                                                                                                                                                                                                                                                                                                                                                                                      PASAJEROS EMBARQUE/DESEMBARQUE (CRUCEROS)           00099900000342041034   99 5903010188     250412D_MIRROR  2002030100000
0002 PPASAJEROS BLOQUE II                                                                                                                                                                                                                                                                                                                                                                                                                                                                                                                                                                                                                                                                                                                                                           PASAJEROS BLOQUE II                                 00000000000300040000          010188    B250412D_MIRROR  2002030100000
0002CPPASAJEROS BLOQUE II (CRUCERO)                                                                                                                                                                                                                                                                                                                                                                                                                                                                                                                                                                                                                                                                                                                                                 PASAJEROS BLOQUE II (CRUCERO)                       00000102340301041034   99 0101010188    B250412D_MIRROR  2002030100000
0002XPPASAJEROS BLQOUE II (CRUCEROS) INICIAN O FINALIZAN EN A.P.                                                                                                                                                                                                                                                                                                                                                                                                                                                                                                                                                                                                                                                                                                                    PASAJEROS BLOQUE II  (CRUCERO)                      00099902340342041034   99     010188    B250412D_MIRROR  2002030100000
0003 PPASAJEROS BLOQUE III                                                                                                                                                                                                                                                                                                                                                                                                                                                                                                                                                                                                                                                                                                                                                          PASAJEROS BLOQUE III                                000000000000000000            000000    B250412D_MIRROR  1995010100000
0004 PMOTOCICLETAS PASAJEROS                                                                                                                                                                                                                                                                                                                                                                                                                                                                                                                                                                                                                                                                                                                                                        MOTOCICLETAS PASAJEROS                              000000000000000000            000000     250412D_MIRROR  2002030100000
0005 PTURISMOS (PASAJEROS) HASTA 5 METROS                                                                                                                                                                                                                                                                                                                                                                                                                                                                                                                                                                                                                                                                                                                                           TURISMOS (PASAJEROS)                                000000000000000000            000000     250412D_MIRROR  2011010100000
0005LPTURISMOS (PASAJEROS) DE MAS DE 5 METROS                                                                                                                                                                                                                                                                                                                                                                                                                                                                                                                                                                                                                                                                                                                                       TURISMOS (PASAJEROS)                                000000000000000000            000000     250412D_MIRROR  2011010100000
0006 PFURGONETAS (PASAJEROS)                                                                                                                                                                                                                                                                                                                                                                                                                                                                                                                                                                                                                                                                                                                                                        FURGONETAS (PASAJEROS)                              000000000000000000            000000    B250412D_MIRROR  2002030100000
0007 PAUTOCARES GRANDES (PASAJEROS)                                                                                                                                                                                                                                                                                                                                                                                                                                                                                                                                                                                                                                                                                                                                                 AUTOCARES GRANDES (PASAJEROS)                       000000000000000000            000000     250412D_MIRROR  2002030100000
0008 PAUTOCARES PEQUEÑOS (PASAJEROS)                                                                                                                                                                                                                                                                                                                                                                                                                                                                                                                                                                                                                                                                                                                                                AUTOCARES PEQUEÑOS (PASAJEROS)                      000000000000000000            000000     250412D_MIRROR  2002030100000
0010 5SACAS DE CORREO                                                                                                                                                                                                                                                                                                                                                                                                                                                                                                                                                                                                                                                                                                                                                               SACAS DE CORRESPONDENCIA                            000000003400000010            000000    B250412D_MIRROR  1995010100000
0011 1MERCANCIAS INUTILIZADAS, PARA DESTRUIR                                                                                                                                                                                                                                                                                                                                                                                                                                                                                                                                                                                                                                                                                                                                        MERCANCIAS INUTILIZADAS, PARA DESTRUIR              000000003400000010            000000    B250412D_MIRROR  1995010100000
0020 4MERCANCIAS EN TRANSITO SIN CLASIFICAR                                                                                                                                                                                                                                                                                                                                                                                                                                                                                                                                                                                                                                                                                                                                         VARIOS-CONTENEDORES EN REGIMEN DE TRANSBORDO        000000004000000010            000000    B250412D_MIRROR  1995010100000
0030 6VARIOS 'CABOTAJE' NO FIGURA EN EL REPERTORIO OFICIAL                                                                                                                                                                                                                                                                                                                                                                                                                                                                                                                                                                                                                                                                                                                          VARIOS                                              20099902340352041000   99     060489    B250412D_MIRROR  1995060100000
0101 5CABALLOS, ASNOS, MULOS Y BURDEGANOS, VIVOS                                                                                                                                                                                                                                                                                                                                                                                                                                                                                                                                                                                                                                                                                                                                    CABALLOS, ASNOS, MULOS,Y BUDÉRGANOS, VIVOS          01000108340301041034   99 0101010188     250412D_MIRROR  1996031200000
0102 5ANIMALES VIVOS DE LA ESPECIE BOVINA                                                                                                                                                                                                                                                                                                                                                                                                                                                                                                                                                                                                                                                                                                                                           ANIMALES VIVOS DE LA ESPECIE BOVINA                 01000108340301041034   99 0102010188     250412D_MIRROR  1996031200000
0103 5ANIMALES VIVOS DE LA ESPECIE PORCINA                                                                                                                                                                                                                                                                                                                                                                                                                                                                                                                                                                                                                                                                                                                                          ANIMALES VIVOS DE LA ESPECIE PORCINA                01000108340301041034   99 0103010188     250412D_MIRROR  1996031200000
0104 5ANIMALES VIVOS DE LAS ESPECIES OVINA O CAPRINA                                                                                                                                                                                                                                                                                                                                                                                                                                                                                                                                                                                                                                                                                                                                ANIMALES VIVOS DE LAS ESPECIES OVINA O CAPRINA      01000108340301041034   99 0104010188     250412D_MIRROR  1996031200000
0105 5GALLOS, GALLINAS, PATOS, GANSOS, PAVOS Y PINTADAS, DE LAS ESPECIES DOMESTICAS, VIVOS                                                                                                                                                                                                                                                                                                                                                                                                                                                                                                                                                                                                                                                                                          GALLOS,GALLINAS,PATOS,GANSOS,PAVOS Y PINTADAS, VIVOS01000108340301041034   99 0105010188     250412D_MIRROR  1996031200000
0106 5LOS DEMAS ANIMALES VIVOS                                                                                                                                                                                                                                                                                                                                                                                                                                                                                                                                                                                                                                                                                                                                                      ANIMALES VIVOS NO EXPRESADOS                        01000108340301041034   99 0106010188     250412D_MIRROR  1996031200000
0201 5CARNE DE ANIMALES DE LA ESPECIE BOVINA, FRESCA O REFRIGERADA                                                                                                                                                                                                                                                                                                                                                                                                                                                                                                                                                                                                                                                                                                                  CARNE DE LA ESPECIE BOVINA, FRESCA O REFRIGERADA    01014107300302041030   52 0201010188     250412D_MIRROR  1996031200000
0202 5CARNE DE ANIMALES DE LA ESPECIE BOVINA, CONGELADA                                                                                                                                                                                                                                                                                                                                                                                                                                                                                                                                                                                                                                                                                                                             CARNE CONGELADA ANIMALES BOVINOS                    01014107300302041030   52 0202010188     250412D_MIRROR  1996031200000
0203 5CARNE DE ANIMALES DE LA ESPECIE PORCINA, FRESCA, REFRIGERADA O CONGELADA                                                                                                                                                                                                                                                                                                                                                                                                                                                                                                                                                                                                                                                                                                      CARNE PORCINA CONGELADA,REFRIGERADA Y FRESCA        01014107300302041030   52 0203010188     250412D_MIRROR  1996031200000
0204 5CARNE DE ANIMALES DE LAS ESPECIES OVINA O CAPRINA, FRESCA, REFRIGERADA O CONGELADA                                                                                                                                                                                                                                                                                                                                                                                                                                                                                                                                                                                                                                                                                            CARNE OVINA/CAPRINA CONGELADA,REFRIGERADA Y FRESCA  01014107300302041030   52 0204010188     250412D_MIRROR  1996031200000
0205 5CARNE DE ANIMALES DE LAS ESPECIES CABALLAR, ASNAL O MULAR, FRESCA, REFRIGERADA O CONGELADA                                                                                                                                                                                                                                                                                                                                                                                                                                                                                                                                                                                                                                                                                    CARNE CABALLAR/ASNAL, CONGELADA,REFRIGERADA Y FRESCA01014107300302041030   52 0205010188     250412D_MIRROR  1996031200000
0206 5DESPOJOS COMESTIBLES DE ANIMALES DE LAS ESPECIES BOVINA, PORCINA, OVINA, CAPRINA, CABALLAR, ASNAL O MULAR, FRESCOS, REFRIGERADOS O CONGELADOS                                                                                                                                                                                                                                                                                                                                                                                                                                                                                                                                                                                                                                 DESPOJOS FRESCOS, REFRIGERADOS O CONGELADOS         01014107300302041030   52 0206010188     250412D_MIRROR  1996031200000
0207 5CARNE Y DESPOJOS COMESTIBLES, DE AVES DE LA PARTIDA 01.05, FRESCOS, REFRIGERADOS O CONGELADOS                                                                                                                                                                                                                                                                                                                                                                                                                                                                                                                                                                                                                                                                                 CARNE Y DESPOJOS AVES CONGELADA,REFRIGERADA Y FRESCA01014107300302041030   52 0207010188     250412D_MIRROR  1996031200000
0208 5LAS DEMAS CARNES Y DESPOJOS COMESTIBLES, FRESCOS, REFRIGERADOS O CONGELADOS                                                                                                                                                                                                                                                                                                                                                                                                                                                                                                                                                                                                                                                                                                   LAS DEMAS CARNES Y DESPOJOS,FRESCOS,CONGELADOS,REFR.01014107300302041030   52 0208010188     250412D_MIRROR  1996031200000
0209 5TOCINO SIN PARTES MAGRAS Y GRASA SIN FUNDIR DE CERDO O DE AVE, FRESCOS, REFRIGERADOS, CONGELADOS, SALADOS O EN SALMUERA, SECOS O AHUMADOS.                                                                                                                                                                                                                                                                                                                                                                                                                                                                                                                                                                                                                                    TOCINO                                              01014107300302041030   52 0209000000     250412D_MIRROR  1996031200000
0210 5CARNE Y DESPOJOS, COMESTIBLES, SALADOS O EN SALMUERA, SECOS O AHUMADOS; HARINA Y POLVO COMESTIBLES, DE CARNE O DE DESPOJOS                                                                                                                                                                                                                                                                                                                                                                                                                                                                                                                                                                                                                                                    CARNES Y DESPOJOS SECOS Y SALADOS                   01014707300326041030   52 0210010188     250412D_MIRROR  1996031200000
0301 5PECES VIVOS                                                                                                                                                                                                                                                                                                                                                                                                                                                                                                                                                                                                                                                                                                                                                                   PECES VIVOS                                         01000108340301041034   99 0301010188     250412D_MIRROR  1996031200000
0302 5PESCADO CONGELADO, CON EXCLUSION DE LOS FILETES Y DEMAS CARNE DE PESCADO DE LA PARTIDA 03.04                                                                                                                                                                                                                                                                                                                                                                                                                                                                                                                                                                                                                                                                                  PESCA FRESCA O REFRIGERIADA                         01014202300304041033   75 0302130592    B250412D_MIRROR  1996031200000
0302B3PESCADO REFRIGERADO (EXCEPTO LOS FILETES Y DEMAS CARNES DE PESCADO DE LA PARTIDA 03.04)                                                                                                                                                                                                                                                                                                                                                                                                                                                                                                                                                                                                                                                                                       PESCADO REFRIGERADO                                 010000073300000010            010311     250412D_MIRROR  2011010100000
0302C5PESCADO FRESCO O REFRIGERADO, CON EXCLUSION DE LOS FILETES Y DEMAS CARNE DE PESCADO DE LA PARTIDA 03.04, CAPTURADO POR BUQUES DE BANDERA DE PAISES MIEMBROS DE LA UNION EUROPEA.                                                                                                                                                                                                                                                                                                                                                                                                                                                                                                                                                                                              PESCA FRESCA O REFRIGERIADA (BUQUES UE)             01014202300304041030   75 5436191092    B250412D_MIRROR  1995060100500
0302I7PESCADO FRESCO O REFRIGERADO, CON EXCLUSION DE LOS FILETES Y DEMAS CARNE DE PESCADO DE LA PARTIDA 03.04, CAPTURADO POR BUQUES DE BANDERA DE PAISES NO MIEMBROS DE LA UNION EUROPEA.                                                                                                                                                                                                                                                                                                                                                                                                                                                                                                                                                                                           PESCADO FRESCO Y REFRIGERADO (BUQUES NO UE)         01014202300304041030   75 5437191092    B250412D_MIRROR  1995060100000
0303 5PESCADO CONGELADO; CON EXCLUSION DE LOS FILETES Y DEMAS CARNE DE PESCADO DE LA PARTIDA Nº 0304                                                                                                                                                                                                                                                                                                                                                                                                                                                                                                                                                                                                                                                                                PESCADOS CONGELADOS,CON EXCLUSION DE PESCADOS P.0304010000003300000010        0303000000    B250412D_MIRROR  1996031200000
0303A3PESCADO CONGELADO, CON EXCLUSION DE LOS FILETES Y DEMAS CARNE DE PESCDO DE LA PARTIDA 03.04)                                                                                                                                                                                                                                                                                                                                                                                                                                                                                                                                                                                                                                                                                  PESCADOS CONGELADOS,CON EXCLUSION DE PESCADOS P.0304010000073300000010            030111     250412D_MIRROR  2011010100000
0303B3ATUNES, SARDINAS Y CABALLAS CONGELADOS, CON EXCLUSIÓN DE LOS FILETES Y DEMÁS CARNE DE PESCADO DE LA PARTIDA 0304                                                                                                                                                                                                                                                                                                                                                                                                                                                                                                                                                                                                                                                              ATUNES,SARDINAS Y CABALLAS CONGELADOS(EXCLUS.P.0304)010000073300000010            030111     250412D_MIRROR  2011010100000
0303C5PESCADO CONGELADO, CON EXCLUSION DE LOS FILETES Y DEMAS CARNE DE PESCADO DE LA PARTIDA 03.04, CAPTURADO POR BUQUES DE BANDERA DE PAISES  MIEMBROS DE LA UNION EUROPEA.                                                                                                                                                                                                                                                                                                                                                                                                                                                                                                                                                                                                        PESCADOS CONGELADOS (BUQUES UE)                     01014202330304041033   75 5437191092    B250412D_MIRROR  1995060100500
0303I7PESCADO CONGELADO, CON EXCLUSION DE LOS FILETES Y DEMAS CARNE DE PESCDO DE LA PARTIDA 03.04, CAPTURADO POR BUQUES DE BANDERA DE PAISES NO MIEMBROS DE LA UNION EUROPEA.                                                                                                                                                                                                                                                                                                                                                                                                                                                                                                                                                                                                       PESCADOS CONGELADOS (BUQUES NO UE)                  01014202330304041033   75 8301191092    B250412D_MIRROR  1995060100000
0303J4PESCADO CONGELADO: ATUNES, LISTADOS O BONITOS DE VIENTRE RAYADO, CON EXCLUSION DE LOS HIGADOS, HUEVAS Y LECHAS (SUBPARTIDAS 0303.41, 0303.42, 0303.43 Y 0303.49)                                                                                                                                                                                                                                                                                                                                                                                                                                                                                                                                                                                                              ATUNES CONGELADOS                                   010000003300000010        0303000000    B250412D_MIRROR  1996031200000
0304 3FILETES Y DEMAS CARNE DE PESCADO (INCLUSO PICADA); FRESCOS;REFRIGERADOS O CONGELADOS                                                                                                                                                                                                                                                                                                                                                                                                                                                                                                                                                                                                                                                                                          FILETES Y DEMAS CARNE DE PESCADO, FRESCOS,CONGELADO 010000073300000010            030111     250412D_MIRROR  2011010100000
0304C6FILETES Y DEMAS CARNE DE PESCADO (INCLUSO PICADA), FRESCOS, REFRIGERADOS O CONGELADOS, CAPTURADO POR BUQUES DE BANDERA DE PAISES MIEMBROS DE LA UNION EUROPEA.                                                                                                                                                                                                                                                                                                                                                                                                                                                                                                                                                                                                                FILETES Y PREP.DE PESC.CONGELADO (BUQUES UE)        01014202330302041033   75 6211191092    B250412D_MIRROR  1995060100500
0304I7FILETES Y DEMAS CARNE DE PESCADO (INCLUSO PICADA), FRESCOS, REFRIGERADOS O CONGELADOS, CAPTURADO POR BUQUES DE BANDERA DE PAISES NO MIEMBROS DE LA UNION EUROPEA.                                                                                                                                                                                                                                                                                                                                                                                                                                                                                                                                                                                                             FILETES Y PREP.DE PESC.CONGELADO (BUQUES NO UE)     01014202330302041033   75 6211191092    B250412D_MIRROR  1995060100000
0305 3PESCADO SECO, SALADO O EN SALMUERA; PESCADO AHUMADO, INCLUSO COCIDO ANTES O DURANTE EL AHUMADO; HARINA DE PESCADO APTA PARA LA ALIMENTACION HUMANA                                                                                                                                                                                                                                                                                                                                                                                                                                                                                                                                                                                                                            PESCADO SECO, SALADO Y AHUMADO                      010000073000000010            030111     250412D_MIRROR  2011010100000
0306 3CRUSTACEOS, INCLUSO PELADOS, VIVOS, FRESCOS, REFRIGERADOS, CONGELADOS, SECOS, SALADOS O EN SALMUERA  CRUSTACEOS SIN PELAR COCIDOS CON AGUA O VAPOR, INCLUSO REFRIGERADOS, CONGELADOS, SECOS, SALADOS O EN SALMUERA, EN CABOTAJE Y EXPORTACION Y TRANSITO                                                                                                                                                                                                                                                                                                                                                                                                                                                                                                                      CRUSTACEOS                                          010000073300000010            030111     250412D_MIRROR  2011010100000
0306C7CRUSTACEOS, INCLUSO PELADOS, VIVOS, FRESCOS, REFRIGERADOS, CONGELADOS, SECOS, SALADOS O EN SALMUERA  CRUSTACEOS SIN PELAR COCIDOS CON AGUA O VAPOR, INCLUSO REFRIGERADOS, CONGELADOS, SECOS, SALADOS O EN SALMUERA, EN CABOTAJE Y EXPORTACION Y TRANSITO                                                                                                                                                                                                                                                                                                                                                                                                                                                                                                                      CRUSTACEOS CONGELADOS  (BUQUES CEE)                 010000003300000010            000000    B250412D_MIRROR  1995010100000
0306I7CRUSTACEOS, INCLUSO PELADOS, VIVOS, FRESCOS, REFRIGERADOS, CONGELADOS, SECOS, SALADOS O EN SALMUERA  CRUSTACEOS SIN PELAR COCIDOS CON AGUA O VAPOR, INCLUSO REFRIGERADOS, CONGELADOS, SECOS, SALADOS O EN SALMUERA EN IMPORTACION DE EXTERIOR                                                                                                                                                                                                                                                                                                                                                                                                                                                                                                                                 PESCADOS MOLUSCOS IMPORTADOS  (BUQUES NO CEE)       01014202330304041033   75 8301191092    B250412D_MIRROR  1995060100000
0307 3MOLUSCOS;INCLUSO SEPARADOS DE LAS VALVAS; VIVOS; FRESCOS;REFRIGERADOS;CONGELADOS;SECOS;SALADOS EN SALMUERA; INVERTEBRADOS ACUATICOS;EXCEPTO LOS CRUSTACEOS Y MOLUSCOS;VIVOS;FRESCOS;REFRIGERADOS;CONGELADOS;SECOS;SALADOS O EN SALMUERA;HARINA; POLVO Y "PELLETS" DE INVERTEBRADOS ACUATICOS;EXCEPTO DE LOS CRUSTÁCEOS; APTOS PARA LA ALIMENTACION HUMANA                                                                                                                                                                                                                                                                                                                                                                                                                     MOLUSCOS. INVERTEBRADOS ACUATICOS.                  010000073300000010            030111     250412D_MIRROR  2011010100000
0307C5MOLUSCOS, INCLUSO SEPARADOS DE LAS VALVAS, VIVOS, FRESCOS, REFRIGERADOS, CONGELADOS, SECOS, SALADOS O EN SALMUERA; INVERTEBRADOS ACUATICOS, EXCEPTO LOS CRUSTACEOS Y MOLUSCOS, VIVOS, FRESCOS, REFRIGERADOS, CONGELADOS, SECOS, SALADOS O EN SALMUERA, CAPTURADOS POR BUQUES DE BANDERA DE PAISES MIEMBROS DE LA UE.                                                                                                                                                                                                                                                                                                                                                                                                                                                          MOLUSCOS CONG.C Y S CONCH.Y OSTRA (BUQUES UE)       01014202330304041033   75 5435191092    B250412D_MIRROR  1995060100500
0307I7MOLUSCOS, INCLUSO SEPARADOS DE LAS VALVAS, VIVOS, FRESCOS, REFRIGERADOS, CONGELADOS, SECOS, SALADOS O EN SALMUERA; INVERTEBRADOS ACUATICOS, EXCEPTO LOS CRUSTACEOS Y MOLUSCOS, VIVOS, FRESCOS, REFRIGERADOS, CONGELADOS, SECOS, SALADOS O EN SALMUERA, CAPTURADO POR BUQUES DE BANDERA DE PAISES NO MIEMBROS DE LA UNION EUROPEA.                                                                                                                                                                                                                                                                                                                                                                                                                                             MOLUSCOS CONG.C Y S CONCH.Y OSTRA (BUQUES NO UE)    01014202330304041033   75 5435191092    B250412D_MIRROR  1995060100000
0401 5LECHE Y NATA (CREMA), SIN CONCENTRAR, AZUCARAR NI EDULCORAR DE OTRO MODO                                                                                                                                                                                                                                                                                                                                                                                                                                                                                                                                                                                                                                                                                                      LECHE Y NATA(CREMA),SIN CONCENTRAR NI ADICIÓN AZUCAR01014307300303041030   52 0401010188     250412D_MIRROR  1996031200000
0402 5LECHE Y NATA (CREMA),CONCENTRADAS O CON ADICIÓN DE AZÚCAR U OTRO EDULCORANTE.                                                                                                                                                                                                                                                                                                                                                                                                                                                                                                                                                                                                                                                                                                 LECHE Y NATA(CREMA)CONCENTRADAS O CON ADICIÓN AZUCAR01017907300303041030   52 0402010188     250412D_MIRROR  1996031200000
0403 5SUERO DE MANTEQUILLA(DE MANTECA), LECHE Y NATA (CREMA), CUAJADAS, YOGUR, KEFIR Y DEMAS LECHES Y NATAS (CREMAS), FERMENTADAS O ACIDIFICADAS, INCLUSO CONCENTRADOS, AZUCARADOS, EDULCORADOS DE OTRO MODO O AROMATIZADOS, O CON FRUTA O CACAO                                                                                                                                                                                                                                                                                                                                                                                                                                                                                                                                    YOGURT,SUERO MANTEQUILLA,KEFIR,LECHE Y NATA FERMENT.01014407300303041030   52 0403010188     250412D_MIRROR  1996031200000
0404 5LACTOSUERO, INCLUSO CONCENTRADO, AZUCARADO O EDULCORADO DE OTRO MODO; PRODUCTOS CONSTITUIDOS POR LOS COMPONENTES NATURALES DE LA LECHE, INCLUSO AZUCARADOS O EDULCORADOS DE OTRO MODO, NO EXPRESADOS NI COMPRENDIDOS EN OTRAS PARTIDAS                                                                                                                                                                                                                                                                                                                                                                                                                                                                                                                                        PRODUCTOS LACTEOS NO ESPECIFICAD                    01014407300303041030   52 0404010188     250412D_MIRROR  1996031200000
0405 5MANTEQUILLA (MANTECA) Y DEMÁS MATERIAS GRASAS DE LA LECHE; PASTAS LÁCTEAS PRA UNTAR                                                                                                                                                                                                                                                                                                                                                                                                                                                                                                                                                                                                                                                                                           MANTEQUILLA Y DEMÁS MATERIAS GRASAS DE LA LECHE     01014407300303041030   52 0405010188     250412D_MIRROR  1996031200000
0406 5QUESOS Y REQUESON                                                                                                                                                                                                                                                                                                                                                                                                                                                                                                                                                                                                                                                                                                                                                             QUESOS Y REQUESON                                   01014407300303041030   52 0406010188     250412D_MIRROR  1996031200000
0407 5HUEVOS DE AVE CON CASCARA, FRESCOS, CONSERVADOS O COCIDOS                                                                                                                                                                                                                                                                                                                                                                                                                                                                                                                                                                                                                                                                                                                     HUEVOS DE AVE CON CÁSCARA,FRESCOS,CONSERVADOS,COCIDO01014607300303041030   52 0407010188     250412D_MIRROR  1996031200000
0408 5HUEVOS DE AVE SIN CASCARA Y YEMAS DE HUEVO, FRESCOS, SECOS, COCIDOS CON AGUA O VAPOR, MOLDEADOS, CONGELADOS O CONSERVADOS DE OTRO MODO, INCLUSO AZUCARADOS O EDULCORADOS DE OTRO MODO                                                                                                                                                                                                                                                                                                                                                                                                                                                                                                                                                                                         HUEVOS DE AVE SIN CÁSCARA Y YEMAS,FRESCO,SECO,COCIDO01014607300303041027   52 0408010188     250412D_MIRROR  1996031200000
0409 5MIEL NATURAL                                                                                                                                                                                                                                                                                                                                                                                                                                                                                                                                                                                                                                                                                                                                                                  MIEL NATURAL                                        01013607300309041030   52 0409010188     250412D_MIRROR  1996031200000
0410 5PRODUCTOS COMESTIBLES DE ORIGEN ANIMAL NO EXPRESADOS NI COMPRENDIDOS EN OTRAS PARTIDAS                                                                                                                                                                                                                                                                                                                                                                                                                                                                                                                                                                                                                                                                                        OTROS PRODUCTOS COMESTIBLES DE ORIGEN ANIMAL        01013907300304041030   52 0410010188     250412D_MIRROR  1996031200000
0501 5CABELLO EN BRUTO, INCLUSO LAVADO O DESGRASADO; DESPERDICIOS DE CABELLO                                                                                                                                                                                                                                                                                                                                                                                                                                                                                                                                                                                                                                                                                                        CABELLO EN BRUTO,INCLUSO LAVADO ; DESPERDICIOS      01009908340326041034   99 0501010188     250412D_MIRROR  1996031200000
0502 5CERDAS DE JABALI O DE CERDO; PELO DE TEJON Y DEMAS PELOS DE CEPILLERIA; DESPERDICIOS DE DICHAS CERDAS O PELOS                                                                                                                                                                                                                                                                                                                                                                                                                                                                                                                                                                                                                                                                 CERDAS DE CERDO O DE JABALI,DEMÁS PELOS CEPILLERIA  01009908340326041034   99 0502010188     250412D_MIRROR  1996031200000
0503 5CRIN Y SUS DESPERDICIOS, INCLUSO EN CAPAS CON SOPORTE O SIN EL                                                                                                                                                                                                                                                                                                                                                                                                                                                                                                                                                                                                                                                                                                                CRIN  Y SUS DESPERDICIOS                            01009908340319041034   99 0503010188     291111D_MIRROR  2011010100000
0504 5TRIPAS, VEJIGAS Y ESTOMAGOS DE ANIMALES, EXCEPTO LOS DE PESCADO, ENTEROS O EN TROZOS                                                                                                                                                                                                                                                                                                                                                                                                                                                                                                                                                                                                                                                                                          DESPOJO DE ANIMALES, EXCEPTO LOS DE PESCADO         01014108340326041034   52 0504010188     250412D_MIRROR  1996031200000
0505 5PIELES Y OTRAS PARTES DE AVES, CON LAS PLUMAS O CON EL PLUMON, PLUMAS Y PARTES DE PLUMAS (INCLUSO RECORTADAS) Y PLUMON, EN BRUTO O SIMPLEMENTE LIMPIADOS, DESINFECTADOS O PREPARADOS PARA SU CONSERVACION; POLVO Y DESPERDICIOS DE PLUMAS O DE PARTES DE PLUMAS                                                                                                                                                                                                                                                                                                                                                                                                                                                                                                               PIELES, PLUMAS, PLUMON,EN BRUTO O PREPARADOS CONSER.01009908340339041034   63 0505010188     250412D_MIRROR  1996031200000
0506 5HUESOS Y NUCLEOS CORNEOS, EN BRUTO, DESGRASADOS, SIMPLEMENTE PREPARADOS (PERO SIN CORTAR EN FORMA DETERMINADA), ACIDULADOS O DESGELATINIZADOS; POLVO Y DESPERDICIOS DE ESTAS MATERIAS.                                                                                                                                                                                                                                                                                                                                                                                                                                                                                                                                                                                        HUESOS DE ANIMALES, EN BRUTO, POLVO Y DESPERDICIOS  01014108340326041034   52 0506010188     250412D_MIRROR  1996031200000
0507 5MARFIL, CONCHA DE TORTUGA, BALLENAS DE MAMIFEROS MARINOS (INCLUIDAS LAS BARBAS), CUERNOS, ASTAS, CASCOS, PEZUÑAS, UÑAS, GARRAS Y PICOS,EN BRUTO O SIMPLEMENTE PREPARADOS, PERO SIN CORTAR EN FORMAS DETERMINADAS, POLVO Y DESPERDICIOS DE ESTAS MATERIAS.                                                                                                                                                                                                                                                                                                                                                                                                                                                                                                                     MARFIL, CONCHA TORTUGAS, PEZUÑAS DE ANIMALES        01014108340326041034   52 0507010188     250412D_MIRROR  1996031200000
0508 5CORAL Y MATERIAS SIMILARES, EN BRUTO O SIMPLEMENTE PREPARADOS, PERO SIN OTRO TRABAJO; VALVAS Y CAPARAZONES DE MOLUSCOS CRUSTACEOS O EQUINODERMOS Y JIBIONES, EN BRUTO O SIMPLEMENTE PREPARADOS, PERO SIN CORTAR EN FORMA DETERMINADA SUS POLVOS  Y DESPERDICIOS                                                                                                                                                                                                                                                                                                                                                                                                                                                                                                               CORAL Y SIMILARES EN BRUTO O SIMPLEMENTE PREPARADOS 01009908340326041034   99 0508010188     250412D_MIRROR  1996031200000
0509 5ESPONJAS NATURALES DE ORIGEN ANIMAL                                                                                                                                                                                                                                                                                                                                                                                                                                                                                                                                                                                                                                                                                                                                           ESPONJAS                                            01009908340326041034   99 0509010188     291111D_MIRROR  2011010100000
0510 5AMBAR GRIS, CASTOREO, ALGALIA Y ALMIZCLE, CANTARIDAS; BILIS, INCLUSO DESECADA; GLANDULAS Y DEMAS SUSTANCIAS DE ORIGEN ANIMAL UTILIZADAS PARA LA PREPARACION DE PRODUCTOS FARMACEUTICOS, FRESCAS, REFRIGERADAS, CONGELADAS O CONSERVADAS PROVISIONALMENTE DE OTRA FORMA.                                                                                                                                                                                                                                                                                                                                                                                                                                                                                                       AMBAR GRIS, CASTÓREO, ALGALIA Y ALMIZCLE, CANTARIDAS01063908340351041034   99 0510010188     250412D_MIRROR  1996031200000
0511 5PRODUCTOS DE ORIGEN ANIMAL NO EXPRESADOS NI COMPRENDIDOS EN OTRAS PARTIDAS; ANIMALES MUERTOS DE LOS CAPITULOS 1 O 3, IMPROPIOS PARA LA ALIMENTACION HUMANA.                                                                                                                                                                                                                                                                                                                                                                                                                                                                                                                                                                                                                   PRODUCTOS ORIGEN ANIMAL IMPROPIOS ALIMENTAC. HUMANA 01000108340301041034   99 0511010188     250412D_MIRROR  1996031200000
0601 3BULBOS, CEBOLLAS, TUBERCULOS, RAICES TUBEROSAS, BROTES Y RIZOMAS, EN REPOSO VEGETATIVO, EN VEGETACION O EN FLOR; PLANTONES, PLANTAS Y RAICES DE ACHICORIA, EXCEPTO LAS RAICES DE LA PARTIDA 12.12                                                                                                                                                                                                                                                                                                                                                                                                                                                                                                                                                                             BULBOS, CEBOLLAS, RAICES Y TUBERCULOS               02005508340326041034   99 0601010188     250412D_MIRROR  1996031200000
0602 3LAS DEMAS PLANTAS VIVAS (INCLUIDAS SUS RAICES), ESQUEJES E INJERTOS, BLANCO DE SETAS                                                                                                                                                                                                                                                                                                                                                                                                                                                                                                                                                                                                                                                                                          PLANTAS VIVAS                                       02009908340326041034   99 0602010188     250412D_MIRROR  1996031200000
0603 3FLORES Y CAPULLOS, CORTADOS PARA RAMOS O ADORNOS, FRESCOS, SECOS, BLANQUEADOS, TEÑIDOS, IMPREGNADOS O PREPARADOS DE OTRA FORMA                                                                                                                                                                                                                                                                                                                                                                                                                                                                                                                                                                                                                                                FLORES Y CAPULLOS                                   02089308340326041034   99 0603010188     250412D_MIRROR  1996031200000
0604 3FOLLAJE, HOJAS, RAMAS Y DEMAS PARTES DE PLANTAS, SIN FLORES NI CAPULLOS, HIERBAS, MUSGOS Y LIQUENES, PARA RAMOS O ADORNOS, FRESCOS, SECOS, BLANQUEADOS, TEÑIDOS, IMPREGNADOS O PREPARADOS DE OTRA FORMA                                                                                                                                                                                                                                                                                                                                                                                                                                                                                                                                                                       FOLLAJE,HOJAS,RAMAS Y DEMÁS PARTES PLANTAS,SIN FLOR 02089308340326041034   99 0604010188     250412D_MIRROR  1996031200000
0701 3PATATAS (PAPAS), FRESCAS O REFRIGERADAS                                                                                                                                                                                                                                                                                                                                                                                                                                                                                                                                                                                                                                                                                                                                       PATATAS                                             02002007230307041023   52 0701010188     250412D_MIRROR  1996031200000
0702 3TOMATES FRESCOS O REFRIGERADOS                                                                                                                                                                                                                                                                                                                                                                                                                                                                                                                                                                                                                                                                                                                                                TOMATES                                             02003507230307041023   52 0702010188     250412D_MIRROR  1996031200000
0703 3CEBOLLAS, CHALOTES, AJOS, PUERROS Y DEMAS HORTALIZAS ALIACEAS, FRESCOS O REFRIGERADOS                                                                                                                                                                                                                                                                                                                                                                                                                                                                                                                                                                                                                                                                                         CEBOLLAS, AJOS, PUERROS                             02003907230307041023   52 0703010188     250412D_MIRROR  1996031200000
0704 3COLES, COLIFLORES, COLES RIZADAS, COLINABOS Y PRODUCTOS COMESTIBLES SIMILARES DEL GENERO BRASSICA, FRESCOS O REFRIGERADOS                                                                                                                                                                                                                                                                                                                                                                                                                                                                                                                                                                                                                                                     COLES, COLIFLORES,Y SIMILARES                       02003907230308041023   52 0704010188     250412D_MIRROR  1996031200000
0705 3LECHUGAS (LACTUCA SATIVA) Y ACHICORIAS (COMPRENDIDAS LA ESCAROLA Y LA ENDIBIA) (CICHORIUM SPP.), FRESCAS O REFRIGERADAS                                                                                                                                                                                                                                                                                                                                                                                                                                                                                                                                                                                                                                                       LECHUGAS, ESCAROLA Y ENDIBIA                        02003907230308041023   52 0705010188     250412D_MIRROR  1996031200000
0706 3ZANAHORIAS, NABOS, REMOLACHAS PARA ENSALADA, SALSIFIES, APIONABOS, RABANOS Y RAICES COMESTIBLES SIMILARES, FRESCOS O REFRIGERADOS                                                                                                                                                                                                                                                                                                                                                                                                                                                                                                                                                                                                                                             ZANAHORIAS, NABOS, REMOLACHA, ETC.                  02002007230307041023   52 0706010188     250412D_MIRROR  1996031200000
0707 3PEPINOS Y PEPINILLOS, FRESCOS O REFRIGERADOS                                                                                                                                                                                                                                                                                                                                                                                                                                                                                                                                                                                                                                                                                                                                  PEPINOS                                             02003907230308041023   52 0707010188     250412D_MIRROR  1996031200000
0708 3HORTALIZAS, INCLUSO "SILVESTRES" DE VAINA, AUNQUE ESTÉN DESVAINADAS, FRESCAS O REFRIGERADAS                                                                                                                                                                                                                                                                                                                                                                                                                                                                                                                                                                                                                                                                                   HORTALIZAS DE VAINA, AUNQUE ESTÉN DESVAINADAS       02016507230308040523   52 0708010188     250412D_MIRROR  1996031200000
0709 3LAS DEMAS HORTALIZAS FRESCAS O REFRIGERADAS                                                                                                                                                                                                                                                                                                                                                                                                                                                                                                                                                                                                                                                                                                                                   LAS DEMÁS HORTALIZAS                                02003907230308041023   52 0709010188     250412D_MIRROR  1996031200000
0710 3HORTALIZAS, INCLUSO SULVESTRES, AUNQUE ESTÉN COCIDAS EN AGUA O VAPOR, CONGELADAS                                                                                                                                                                                                                                                                                                                                                                                                                                                                                                                                                                                                                                                                                              HORTALIZAS COCIDAS, CONGELADAS                      02013907230308041027   78 0710010188     250412D_MIRROR  1996031200000
0711 3HORTALIZAS CONSERVADAS PROVISIONALMENTE (POR EJEMPLO: CON GAS SULFUROSO O CON AGUA SALADA, SULFUROSA O ADICIONADA DE OTRAS SUSTANCIAS PARA DICHA CONSERVACION), PERO TODAVIA IMPROPIAS PARA LA ALIMENTACION                                                                                                                                                                                                                                                                                                                                                                                                                                                                                                                                                                   HORTALIZAS CONSERVADAS PROVISIONALMENTE             02003907230308041027   78 0711010188     250412D_MIRROR  1996031200000
0712 3HORTALIZAS, SECAS, INCLUSO EN TROZOS O EN RODAJAS O BIEN TRITURADAS O PULVERIZADAS, PERO SIN OTRA PREPARACION                                                                                                                                                                                                                                                                                                                                                                                                                                                                                                                                                                                                                                                                 HORTALIZAS SECAS                                    02017907230307041023   52 0712010188     250412D_MIRROR  1996031200000
0713 3LEGUMBRES SECAS DESVAINADAS, INCLUSO MONDADAS O PARTIDAS                                                                                                                                                                                                                                                                                                                                                                                                                                                                                                                                                                                                                                                                                                                      LEGUMBRES SECAS DESVAINADAS                         02000007230307040423   52 0713010188     250412D_MIRROR  2004010100000
0713G3LEGUMBRES SECAS DESVAINADAS, INCLUSO MONDADAS O PARTIDAS                                                                                                                                                                                                                                                                                                                                                                                                                                                                                                                                                                                                                                                                                                                      LEGUMBRES SECAS DESVAINADAS (GRANEL)                02017902230307040423   29 3405090392    B250412D_MIRROR  1995060100000
0714 3RAICES DE MANDIOCA, ARRURRUZ, SALEP, AGUATURMAS (PATACAS), BATATAS Y RAICES Y TUBERCULOS SIMILARES RICOS EN FECULA O EN INULINA, FRESCOS O SECOS, INCLUSO TROCEADOS O EN "PELLETS"; MEDULA DE  SAGU                                                                                                                                                                                                                                                                                                                                                                                                                                                                                                                                                                           RAICES Y TUBERCULOS                                 02002007230307040437   52 0714010188     250412D_MIRROR  1996031200000
0801 3COCOS, NUECES DEL BRASIL Y NUECES DE CAJUIL (DE ANACARDOS O DE MARAÑONES), FRESCOS O SECOS, INCLUSO SIN CASCARA O MONDADOS                                                                                                                                                                                                                                                                                                                                                                                                                                                                                                                                                                                                                                                    NUECES ,COCOS, ANACARDOS                            02004507230315041023   58 0801010188     250412D_MIRROR  1996031200000
0802 3LOS DEMAS FRUTOS DE CASCARA FRESCOS O SECOS, INCLUSO SIN CASCARA O MONDADOS.                                                                                                                                                                                                                                                                                                                                                                                                                                                                                                                                                                                                                                                                                                  LOS DEMAS FRUTOS SECOS                              02017907230310041023   58 0802010188     250412D_MIRROR  1996031200000
0803 3BANANAS O PLATANOS, FRESCOS O SECOS                                                                                                                                                                                                                                                                                                                                                                                                                                                                                                                                                                                                                                                                                                                                           PLATANOS                                            02003507230307041023   57 0803010188     250412D_MIRROR  1996031200000
0804 3DATILES, HIGOS, PIÑAS (ANANAS), AGUACATES (PALTAS), GUAYABAS, MANGOS Y MANGOSTANES, FRESCOS O SECOS                                                                                                                                                                                                                                                                                                                                                                                                                                                                                                                                                                                                                                                                           DATILES, HIGOS, PIÑAS, AGUACATES, FRESCOS O SECOS   02003507230308041023   58 0804010188     250412D_MIRROR  1996031200000
0805 3AGRIOS FRESCOS O SECOS                                                                                                                                                                                                                                                                                                                                                                                                                                                                                                                                                                                                                                                                                                                                                        AGRIOS FRESCOS O SECOS                              02003107230307041023   58 0805010188     250412D_MIRROR  1996031200000
0806 3UVAS Y PASAS                                                                                                                                                                                                                                                                                                                                                                                                                                                                                                                                                                                                                                                                                                                                                                  UVAS Y PASAS                                        02003507230307041023   58 0806010188     250412D_MIRROR  1996031200000
0807 3MELONES, SANDIAS Y PAPAYAS, FRESCOS                                                                                                                                                                                                                                                                                                                                                                                                                                                                                                                                                                                                                                                                                                                                           MELONES, SANDIAS Y PAPAYAS                          02003507230307041023   58 0807010188     250412D_MIRROR  1996031200000
0808 3MANZANAS, PERAS Y MEMBRILLOS, FRESCOS                                                                                                                                                                                                                                                                                                                                                                                                                                                                                                                                                                                                                                                                                                                                         MANZANAS, PERAS Y MEMBRILLOS                        02003502230307041023   58 0808010188    B250412D_MIRROR  1996031200000
0808A3MEMBRILLOS FRESCOS                                                                                                                                                                                                                                                                                                                                                                                                                                                                                                                                                                                                                                                                                                                                                            MEMBRILLOS FRESCOS                                  02003507230307041023   58 0809010188     250412D_MIRROR  2004010100000
0808B3MANZANAS FRESCAS                                                                                                                                                                                                                                                                                                                                                                                                                                                                                                                                                                                                                                                                                                                                                              MANZANAS  FRESCAS                                   02003507230307041023   58 0809010188     250412D_MIRROR  2004010100000
0808C3PERAS FRESCAS                                                                                                                                                                                                                                                                                                                                                                                                                                                                                                                                                                                                                                                                                                                                                                 PERAS FRESCAS                                       02003507230307041023   58 0809010188     250412D_MIRROR  2004010100000
0809 3ALBARICOQUES (DAMASCOS, INCLUIDOS LOS CHABACANOS), CEREZAS, MELOCOTONES O DURAZNOS (INCLUIDOS LOS GRIÑONES Y NECTARINAS), CIRUELAS Y ENDRINOS, FRESCOS                                                                                                                                                                                                                                                                                                                                                                                                                                                                                                                                                                                                                        ALBARICOQUE,CEREZAS,MELOCOTONES,CIRUELAS,NECTARINAS 02003507230307041023   58 0809010188     250412D_MIRROR  1996031200000
0810 3LOS DEMAS FRUTOS FRESCOS                                                                                                                                                                                                                                                                                                                                                                                                                                                                                                                                                                                                                                                                                                                                                      LOS DEMAS FRUTOS FRESCOS                            02003507230307041023   58 0810010188     250412D_MIRROR  1996031200000
0811 3FRUTOS SIN COCER O COCIDOS CON AGUA O VAPOR, CONGELADOS, INCLUSO AZUCARADOS O EDULCORADOS DE OTRO MODO                                                                                                                                                                                                                                                                                                                                                                                                                                                                                                                                                                                                                                                                        FRUTOS CONGELADOS                                   02013907230304041027   58 0811010188     250412D_MIRROR  1996031200000
0812 3FRUTOS CONSERVADOS PROVISIONALMENTE (POR EJEMPLO: CON GAS SULFUROSO O CON AGUA SALADA O SULFUROSA O ADICIONADA DE SUSTANCIAS PARA DICHA CONSERVACION), PERO TODAVIA IMPROPIOS PARA LA ALIMENTACION                                                                                                                                                                                                                                                                                                                                                                                                                                                                                                                                                                            FRUTOS CONSERVADOS PROVISIONALMENTE                 02014207231308041027   58 0812010188     250412D_MIRROR  1996031200000
0813 5FRUTOS SECOS, EXCEPTO LOS DE LAS PARTIDAS 08.01 A 08.06; MEZCLAS DE FRUTOS SECOS O DE FRUTOS DE CASCARA DE ESTE CAPITULO                                                                                                                                                                                                                                                                                                                                                                                                                                                                                                                                                                                                                                                      FRUTOS SECOS (EXCEPTO PTDAS.0801 A 0806)Y NO EXPRES.02016407230308041023   58 0813010188     250412D_MIRROR  2004010100000
